:060000000A128A11262CF1
:1000080003138312A000030EA1000B190F210C1873
:1000180038218C188F210B18C42203138312210E48
:080028008300A00E200E090068
:100200008A010A140F3982073F3406345B344F34B5
:1002100066346D347D3407347F346F3477340313A0
:100220008312FC3081000B11031383128801F41830
:100230001D291A29741826292029741832292C29D5
:100240007008870088157414F4100800710887007E
:1002500008157410F41408007208870088147414C8
:10026000F41408007308870008147410F4100800D0
:10027000031383120B308F00DC308E000C10FE0A4B
:100280007E083C3A03192C2676083C3A031930269E
:100290007A08183A03193826031383124018C42128
:1002A0004118CE2143189A214418BB215018D72158
:1002B000031383122908013A0319CF252908023AAA
:1002C0000319D4252908033A0319D9252908043A22
:1002D0000319DE252908053A0319E3252908063AFA
:1002E0000319E8252908073A0319ED252908083AD2
:1002F0000319F2252908093A0319F72529080A3AAA
:100300000319FC2529080B3A0319012629080C3A80
:100310000319062629080D3A03190B26080023188D
:10032000A40A4618962946148C100800C70A4610DD
:100330008C100800AE032E08FF3A0319AA213208D8
:10034000003A0319AE213208FF3A0319B3212622DD
:100350001C2208003B30AE00B20308002E08003A11
:100360000319B8210800AE01B2014414431008007B
:10037000441443100800C50A45083C3A0319C1213A
:100380000800C50144100800760837060319C92182
:1003900008007A083B06031941140800C20A420803
:1003A0003C3A0319D4210800C20141100800C80AD0
:1003B00048083C3A0319DF214E2244220800CC0AA7
:1003C000C8014C08643A0319E6210800CC01C801B1
:1003D0004E22442208007608F700F801F901F421C2
:1003E0000A30F707FD2108000A307702F7000313EF
:1003F0008312031C0800F90AF4297708F8000800A2
:100400007A08FB00FC01FD0170220A30FB0779220B
:1004100008002508A600A701A80164220A30A60743
:100420006D2208002908AA00AB01AC0158220A304D
:10043000AA076122290808003208B300B401B501F7
:100440007C220A30B3078522320808002E08AF004C
:10045000B001B10188220A30AF0791222E080800AE
:100460003708B800B901BA0194220A30B8079D22B2
:10047000370808003B08BC00BD01BE01A0220A30BD
:10048000BC07A9223B0808004C08CD00CE01CF01D3
:10049000AC220A30CD07B5224C0808004808C90034
:1004A000CA01CB01B8220A30C907C1224808080096
:1004B0000A302A02AA0003138312031C0800AC0AA4
:1004C000582A2A08AB0008000A302602A6000313A7
:1004D0008312031C0800A80A642A2608A700080043
:1004E0000A307B02FB0003138312031C0800FD0A81
:1004F000702A7B08FC0008000A303302B3000313A3
:100500008312031C0800B50A7C2A3308B4000800D3
:100510000A302F02AF0003138312031C0800B10A34
:10052000882A2F08B00008000A303802B8000313E8
:100530008312031C0800BA0A942A3808B90008007C
:100540000A303C02BC0003138312031C0800BE0ADD
:10055000A02A3C08BD0008000A304D02CD0003135C
:100560008312031C0800CF0AAC2A4D08CE000800F5
:100570000A304902C90003138312031C0800CB0A86
:10058000B82A4908CA0008007519042CF518CC2AA5
:10059000C92A7518092BCF2A7518702BB32B061C86
:1005A00075148501051441184C264418532603136D
:1005B0008312A218F82A2218E52ADE2A2310A3148F
:1005C0002414861D22140B1008002314A310861D6A
:1005D000A214861CF60A061DF60376083C3A031997
:1005E000F6017608FF3A03193526EB210B100800B7
:1005F000861DA201861CFA0A061DFA037A08183A1B
:100600000319FA017A08FF3A03193D2600220B105C
:100610000800A201061CF51485018514A3104118D9
:100620004C264418532603138312AD182B2B2D1878
:10063000202B1A2B23102414861D2D140B100800B8
:100640002314861DAD14861CA50A061DA50335239B
:100650000B1009220800861DAD01861CA90A061D83
:10066000A90335230B101222080003138312290853
:10067000013A031963252908023A03196C25290850
:10068000033A031975252908043A03197E25290818
:10069000053A031987252908063A031990252908E0
:1006A000073A031999252908083A0319A2252908A8
:1006B000093A0319AB2529080A3A0319B425290870
:1006C0000B3A0319BD2529080C3A0319C625290838
:1006D0000D3A03190B262908003A03190F260800C2
:1006E000AD01061C75108501051503138312B6189C
:1006F0009E2B3618882B7C2B23102414861D361431
:100700004118CF2B4418D32B061EC30A0B10080028
:100710002314861DB614861CAE0A061DAE032E08D1
:100720003C3A0319AE012E08FF3A03194926411835
:100730004C264418532626220B100800861DB601AD
:10074000861CB20A061DB2033208643A0319B201CC
:100750003208FF3A0319462641184C2644185326FE
:100760001C220B100800B601061C751585018515A5
:1007700003138312BF18EE2B3F18D72BBF2B231068
:100780002414861D3F14401CA3104018A3144118C4
:10079000CF2B4418D32B061EC00A0B100800061ED0
:1007A0004F260B100800061E56260B100800A3103B
:1007B0002314861DBF14861CB70A061DB70337080D
:1007C0003C3A0319B7013708FF3A03194026302293
:1007D00041184C26441853260B1008002314861D7C
:1007E000BF01861CBB0A061DBB033B08183A031950
:1007F000BB013B08FF3A031943263A2241184C2615
:10080000441853260B100800BF01061CF501850192
:100810000516A310861DE6214118CF2B4418D32BB3
:10082000061ED00A0B100800441C1E244418222463
:10083000080047180910471C091408000313831205
:10084000851208000313831285160800CD24F324B3
:100850001E252525322541254F2503138312411CD2
:1008600014244118222403138312A3181924A31C4F
:1008700009147519BE2CF518412C3E2C7518672CDF
:10088000442C7518842CA12C03138312A2184F2C0E
:1008900022184C2C4B2C522C2418522C612C24182E
:1008A000522C642C0313831278080021F00079087D
:1008B0000021F1007C080021F2007D080021F300F6
:1008C0002D2CF001F1012D2CF201F3012D2C03133D
:1008D0008312AD18722C2D186F2C6E2C752C2418C9
:1008E000752C612C2418752C642C03138312270893
:1008F0000021F00028080021F1002B080021F2005F
:100900002C080021F3002D2C03138312B6188F2C12
:1009100036188C2C8B2C922C2418922C612C241899
:10092000922C642C0313831230080021F00031084C
:100930000021F10034080021F20035080021F30005
:100940002D2C03138312BF18AC2C3F18A92CA82CF4
:10095000AF2C2418AF2C612C2418AF2C642C03135B
:10096000831239080021F0003A080021F1003D0807
:100970000021F2003E080021F3002D2C0313831206
:100980004A080021F0004B080021F1004E08002128
:10099000F2004F080021F3002D2C03178316880165
:1009A0008901031383160614861406158615061688
:1009B0008701850108108810081188110910031398
:1009C00083168113031383161514951415159515A5
:1009D000151603138312850187010810881008116A
:1009E000881109100800031383120130A5000922A1
:1009F0000130A9001222FE01FA01F601BB01B70184
:100A0000C801CC01AE01B2010022EB213A22302212
:100A10004E22442226221C2203138312A314F50122
:100A2000A201AD01B601BF01C001C101C201C301F4
:100A3000C401C501C601C701D00108000313831614
:100A40000F140F138F160F1608000313831681124D
:100A5000811101158110011403138312FC308100F0
:100A60000B110800031383129010901190121016AE
:100A700010131014031383120B308F00DC308E0020
:100A80000800031383167A30920003138312921422
:100A9000121412179216121692151215080003134B
:100AA00083160C148C14031383120B178B178B16DD
:100AB0000B110C108C1003138316161496141615B4
:100AC000961516160800203025020318132625084F
:100AD000003A0319202608001D30250203181326AA
:100AE0002508003A0319282608002030250203189B
:100AF00013262508003A0319202608001F30250276
:100B0000031813262508003A03192426080020306C
:100B10002502031813262508003A03192026080089
:100B20001F302502031813262508003A031924262E
:100B3000080020302502031813262508003A03195F
:100B40002026080020302502031813262508003A25
:100B50000319202608001F30250203181326250834
:100B6000003A031924260800203025020318132612
:100B70002508003A0319202608001F302502031813
:100B800013262508003A03192426080020302502E0
:100B9000031813262508003A031920260800250803
:100BA000203A03191A26080025081D3A03191A26A7
:100BB00008002508203A03191A26080025081F3ABC
:100BC00003191A2608002508203A03191A260800D6
:100BD00025081F3A03191A2608002508203A031988
:100BE0001A2608002508203A03191A2608002508A5
:100BF0001F3A03191A2608002508203A03191A2655
:100C0000080025081F3A03191A2608002508203A6B
:100C100003191A2608000130A900122208000C301E
:100C2000A90012220800031383120130A500092233
:100C3000280808000130A500A90A1222092208008C
:100C40001F30A500092208001E30A5000922080057
:100C50001C30A50009220800FE01F60AEB2108005D
:100C6000F601FA0AEB21002208003B30F6000800EA
:100C7000FA01A50A0922002208001730FA0008002C
:100C80003B30B70008001730BB0008006330B200EB
:100C900008003B30AE000800061E4F26080040103A
:100CA0004110C2010800061E562608004410C50166
:020CB00008003A
:04400E00D420FF3F7C
:00000001FF
